:020000040800F2
:1000000058070020F9970008B5950008B795000833
:10001000B9950008BB950008BD95000800000000D8
:10002000000000000000000000000000BF95000874
:10003000C195000800000000C3950008C5950008A0
:10004000199900081D9900082199000825990008B0
:10005000299900082D990008319900083599000860
:10006000399900083D99000841990008F9300008C5
:1000700045990008499900084D99000851990008D0
:1000800055990008599900085D9900086199000880
:1000900065990008699900086D9900087199000830
:1000A00075990008FD3C0008799900087D990008C1
:1000B0008199000885990008899900088D990008A0
:1000C0009199000895990008999900089D99000850
:1000D000A1990008A5990008A9990008AD99000800
:1000E000B1990008B5990008B9990008BD990008B0
:1000F000C1990008C5990008C9990008CD99000860
:10010000000000000000000000000000D19900087D
:10011000D5990008D9990008DD990008E1990008EF
:10012000E5990008E9990008ED990008F19900089F
:10013000F5990008F999000800000000000000008F
:10014000FD9900085D6B0008019A0008000000009E
:10015000000000000000000000000000000000009F
:100160000000000000000000059A0008099A00083D
:100170000D9A0008000000000000000000000000D0
:1001800000000000119A00080000000000000000BC
:10019000000000000000000000000000000000005F
:1001A000000000000000000000000000000000004F
:1001B000000000000000018001800000018001803B
:1001C00000000180018000000180018000000180AA
:1001D000018000000000000000000180018000009C
:1001E00000000C300C3000000C300C30000000001F
:1001F00000000000000000000000000000000000FF
:1002000000000000000000000000000000000C30B2
:100210000C3000000C300C3000006DB66DB60000E4
:100220000C300C3000006DB66DB600000C300C3098
:1002300000000C300C300000000001800180000044
:100240000DB60DB600006000600000000DB00DB0EE
:1002500000000006000600006DB06DB000000180D7
:100260000180000000006C006C0000006C066C0651
:1002700000000030003000000180018000000C0010
:100280000C000000603660360000003600360000CA
:1002900000000C000C0000006180618000006180A3
:1002A000618000000C000C00000061866186000087
:1002B0006030603000000D860D860000000001B047
:1002C00001B0000001B001B00000003000300000BB
:1002D000018001800000000000000000000000001C
:1002E00000000000000000000000003000300000AE
:1002F00001800180000001800180000001800180F8
:1003000000000180018000000180018000000030B9
:100310000030000000000C000C0000000180018093
:100320000000018001800000018001800000018048
:10033000018000000180018000000C000C00000022
:1003400000000000000000006186618600000DB022
:100350000DB000006DB66DB600000DB00DB0000020
:1003600061866186000000000000000000000000BF
:100370000000000001800180000001800180000079
:100380006DB66DB600000180018000000180018023
:10039000000000000000000000000000000000005D
:1003A0000000000000000000000000000D800D8033
:1003B00000000D800D8000000180018000000C0015
:1003C0000C00000000000000000000000000000021
:1003D00000000000000000000DB00DB000000000A3
:1003E000000000000000000000000000000000000D
:1003F00000000000000000000000000000000000FD
:1004000000000000000000000000000000000000EC
:100410000D800D8000000D800D80000000000000A8
:100420000000000000060006000000300030000060
:100430000180018000000C000C00000060006000E2
:10044000000000000000000000000DB00DB0000032
:10045000601E601E00006066606600006186618646
:1004600000006606660600007806780600000DB0FB
:100470000DB0000000000180018000000D800D80A3
:1004800000000180018000000180018000000180E7
:10049000018000000180018000000DB00DB000005F
:1004A00000006DB06DB00000000600060000000600
:1004B000000600000DB00DB00000600060000000FC
:1004C0006000600000006DB66DB6000000006DB009
:1004D0006DB00000000600060000000600060000E7
:1004E0000DB00DB00000000600060000000600067A
:1004F00000006DB06DB000000000600660060000F6
:100500006006600600006006600600006DB66DB60D
:1005100000000006000600000006000600000006BD
:100520000006000000006DB66DB6000060006000BF
:1005300000006000600000006DB06DB000000006BB
:10054000000600000006000600006DB06DB000005F
:1005500000000DB00DB00000600060000000600001
:10056000600000006DB06DB0000060066006000025
:100570006006600600000DB00DB0000000006DB612
:100580006DB6000000060006000000060006000030
:100590000030003000000180018000000C000C00E1
:1005A000000060006000000000000DB00DB0000011
:1005B0006006600600006006600600000DB00DB029
:1005C00000006006600600006006600600000DB0D6
:1005D0000DB0000000000DB00DB000006006600618
:1005E00000006006600600000DB60DB600000006B3
:1005F000000600000006000600000DB00DB000006F
:100600000000000000000000000000000000018069
:100610000180000000000000000001800180000057
:1006200000000000000000000000000000000000CA
:1006300000000000000000000000018001800000B8
:100640000000000000000180018000000C000C0090
:10065000000000000000000000000000000000009A
:100660000030003000000180018000000C000C0010
:100670000000018001800000003000300000000018
:10068000000000000000000000000000000000006A
:1006900000000DB00DB000000000000000000DB023
:1006A0000DB000000000000000000000000000008D
:1006B00000000000000000000C000C0000000180A1
:1006C0000180000000300030000001800180000047
:1006D0000C000C00000000000000000000000DB045
:1006E0000DB0000060066006000000060006000075
:1006F0000030003000000180018000000000000098
:10070000000001800180000000000DB00DB000006D
:100710006006600600006036603600006186618613
:1007200000006036603600006000600000000DB61A
:100730000DB6000000000DB00DB0000060066006B0
:1007400000006006600600006DB66DB60000600631
:10075000600600006006600600006006600600009B
:1007600000006DB06DB0000060066006000060061D
:10077000600600006DB06DB000006006600600000D
:100780006006600600006DB06DB0000000000DB0A6
:100790000DB0000060066006000060006000000010
:1007A00060006000000060006000000060066006FD
:1007B00000000DB00DB0000000006DB06DB0000085
:1007C00060066006000060066006000060066006C5
:1007D00000006006600600006006600600006DB064
:1007E0006DB0000000006DB66DB6000060006000E6
:1007F00000006000600000006DB06DB0000060009F
:10080000600000006000600000006DB66DB6000082
:1008100000006DB66DB60000600060000000600072
:10082000600000006DB06DB000006000600000006E
:1008300060006000000060006000000000000DB07B
:100840000DB000006006600600006000600000005F
:1008500061B661B6000060066006000060066006D2
:1008600000000DB00DB00000000060066006000042
:100870006006600600006006600600006DB66DB69A
:10088000000060066006000060066006000060066A
:100890006006000000000DB00DB000000180018076
:1008A00000000180018000000180018000000180C3
:1008B000018000000180018000000DB00DB000003B
:1008C000000000060006000000060006000000060A
:1008D000000600000006000600006006600600003A
:1008E0006006600600000DB00DB00000000060065C
:1008F00060060000603060300000618061800000B0
:100900006C006C000000618061800000603060302D
:10091000000060066006000000006000600000004B
:100920006000600000006000600000006000600087
:1009300000006000600000006000600000006DB614
:100940006DB6000000006006600600006C366C3674
:100950000000618661860000618661860000600695
:100960006006000060066006000060066006000089
:1009700000006006600600006C066C0600006186E0
:100980006186000060366036000060066006000088
:1009900060066006000060066006000000000DB002
:1009A0000DB00000600660060000600660060000F2
:1009B00060066006000060066006000060066006D3
:1009C00000000DB00DB0000000006DB06DB0000073
:1009D0006006600600006006600600006DB06DB045
:1009E0000000600060000000600060000000600027
:1009F0006000000000000DB00DB000006006600651
:100A00000000600660060000600660060000618667
:100A1000618600006030603000000D860D860000A9
:100A200000006DB06DB0000060066006000060065A
:100A3000600600006DB06DB0000061806180000054
:100A400060306030000060066006000000000DB0FD
:100A50000DB000006006600600006000600000004D
:100A60000DB00DB000000006000600006006600634
:100A700000000DB00DB0000000006DB66DB60000B6
:100A80000180018000000180018000000180018060
:100A900000000180018000000180018000000180D1
:100AA000018000000000600660060000600660062D
:100AB0000000600660060000600660060000600638
:100AC000600600006006600600000DB00DB000007A
:100AD0000000600660060000600660060000600618
:100AE000600600000C300C3000000C300C300000B0
:100AF000018001800000018001800000000060068C
:100B000060060000600660060000600660060000E7
:100B10006186618600006186618600006C366C36F5
:100B2000000060066006000000006006600600002D
:100B30006006600600000C300C300000018001806F
:100B400000000C300C3000006006600600006006FB
:100B50006006000000006006600600006006600697
:100B600000006006600600000C300C3000000180C0
:100B700001800000018001800000018001800000F0
:100B800000006DB66DB600000006000600000030E3
:100B9000003000000180018000000C000C0000000B
:100BA0006000600000006DB66DB60000000001B08E
:100BB00001B0000001800180000001800180000080
:100BC000018001800000018001800000018001801F
:100BD000000001B001B000000000000000000000B3
:100BE0006000600000000C000C000000018001802B
:100BF0000000003000300000000600060000000089
:100C00000000000000000D800D80000001800180C8
:100C1000000001800180000001800180000001804F
:100C2000018000000180018000000D800D80000027
:100C300000000180018000000C300C3000006006D4
:100C4000600600000000000000000000000000003E
:100C50000000000000000000000000000000000094
:100C60000000000000000000000000000000000084
:100C70000000000000000000000000000000000074
:100C800000006DB66DB60000000001B001B00000BC
:100C900001B001B000000180018000000030003090
:100CA0000000000000000000000000000000000044
:100CB0000000000000000000000000000000000034
:100CC00000000DB00DB000000006000600000DB6DB
:100CD0000DB600006006600600000DB60DB60000FF
:100CE000000060006000000060006000000061B073
:100CF00061B000006C066C06000060066006000033
:100D00006006600600006DB06DB0000000000000DD
:100D1000000000000000000000000DB00DB0000059
:100D20006000600000006000600000006000600083
:100D300000000DB00DB0000000000006000600002D
:100D40000006000600000DB60DB600006006600645
:100D500000006006600600006036603600000D8608
:100D60000D860000000000000000000000000000F0
:100D700000000DB00DB000006006600600006DB010
:100D80006DB000006000600000000DB00DB000000C
:100D900000000030003000000180018000000DB034
:100DA0000DB0000001800180000001800180000082
:100DB00001800180000001800180000000000DB66C
:100DC0000DB60000600660060000600660060000C8
:100DD0006036603600000D860D86000000060006B5
:100DE00000000DB00DB000000000600060000000C9
:100DF00060006000000061B061B000006C066C062D
:100E000000006006600600006006600600006006E4
:100E1000600600000000018001800000000000006A
:100E2000000001800180000001800180000001803D
:100E3000018000000180018000000180018000002D
:100E4000000001800180000000000000000001801F
:100E5000018000000180018000000180018000000D
:100E60000180018000000C000C0000000000600008
:100E70006000000060006000000060306030000032
:100E80006180618000006C006C0000006180618006
:100E90000000603060300000000001800180000030
:100EA000018001800000018001800000018001803C
:100EB00000000180018000000180018000000030FE
:100EC00000300000000000000000000000000000F2
:100ED00000006C306C300000618661860000618625
:100EE000618600006186618600006186618600007F
:100EF00000000000000000000000000000006DB0D5
:100F00006DB000006006600600006006600600002C
:100F10006006600600006006600600000000000039
:100F2000000000000000000000000DB00DB0000047
:100F3000600660060000600660060000600660064D
:100F400000000DB00DB0000000006DB06DB00000ED
:100F50006006600600006006600600006C066C0615
:100F6000000061B061B0000060006000000060003F
:100F70006000000000000DB00DB0000060066006CB
:100F800000006006600600006036603600000D86D6
:100F90000D860000000600060000000600060000A6
:100FA000000000000000000000000000000061B030
:100FB00061B000006C006C00000060006000000088
:100FC00060006000000060006000000000000000A1
:100FD000000000000000000000000DB60DB600008B
:100FE0006000600000000DB00DB0000000060006BB
:100FF00000006DB06DB000000000018001800000B5
:101000000180018000000DB00DB000000180018062
:10101000000001800180000001800180000000309C
:101020000030000000000000000000000000000090
:1010300000006006600600006006600600006006B2
:10104000600600006006600600000DB60DB60000E8
:10105000000000000000000000000000000060062A
:101060006006000060066006000060066006000082
:101070000C300C30000001800180000000000000F6
:101080000000000000000000000060066006000094
:1010900060066006000061866186000061866186E8
:1010A00000000C300C3000000000000000000000C8
:1010B0000000000000006006600600000C300C30EC
:1010C00000000180018000000C300C300000600640
:1010D00060060000000000000000000000000000AA
:1010E00000006006600600006006600600000DB6A5
:1010F0000DB600000006000600000DB00DB00000A7
:1011000000000000000000000000000000006DB6BC
:101110006DB600000030003000000180018000004A
:101120000C000C0000006DB66DB600000000003031
:10113000003000000180018000000180018000007B
:101140000C000C0000000180018000000180018083
:10115000000000300030000000000180018000002D
:101160000180018000000180018000000180018079
:1011700000000180018000000180018000000180EA
:101180000180000000000C000C00000001800180C4
:10119000000001800180000000300030000001806C
:1011A000018000000180018000000C000C000000A4
:1011B00000000D860D8600006030603000000000E9
:1011C000000000000000000000000000000000001F
:1011D0000000000000000000000000002DE9F04FBA
:1011E000A1B08046002017461D4602910B900DF1DC
:1011F000440A6FF000490AE017F8011B0298C04743
:101200000028029000F0A1820B98401C0B903878C7
:1012100008B90B989BE22528EED100200590069096
:101220000790089009900A9001E040F0010017F83B
:10123000011F2029F9D023290DD02B2904D02D29D5
:1012400006D030290AD00CE040F0020080B2EEE770
:1012500040F00400FAE740F00800F7E740F0100023
:10126000F4E72A290ED12968296051F8042B296056
:10127000002A0D9204D5514240F004000D9180B235
:101280007F1C11E000210D9109E00D99494505D021
:1012900001EB810302EB430130390D917F1C3A7859
:1012A000A2F130010A29F0D339782E2903D04FF06A
:1012B000FF310C911DE017F8011F2A2907D1296879
:1012C00029607F1C51F8042B29600C9211E0002149
:1012D0000C9109E00C99494505D001EB810302EB23
:1012E000430130390C917F1C3A78A2F130010A2970
:1012F000F0D3ADF838000FF6B420397800F068FD6F
:1013000008B117F8010B8DF83A009DF83A006828EB
:1013100002BF39786829622005D06C2804BF38786C
:101320006C2803D171208DF83A007F1C11A804901D
:1013300017F8014BB4F1250023D02038022840F2E1
:10134000BB80133800F0E0800B3800F04A81401E6B
:1013500000F02381401E022840F2AE80001F00F002
:101360001C81401F79D0401E00F0CE80401E24D04A
:10137000C01E0BD0801E00F0C780C01E00F0C480CD
:1013800039E125208DF8440001203DE128682860DE
:1013900050F8046B286003960C9C002C04D5304652
:1013A00000F022FD044606E022460021304600F00F
:1013B00037FD00B1841B069427E1296829603C248D
:1013C00051F8040B29600021CDE9000111A8039018
:1013D000DDE90001049E11B908B90C9AB2B1020608
:1013E000120FA0EB02123032D2B2631E3A2AA8BF0B
:1013F000273200099A5540EA0170090908BF002800
:101400001C4603D0039AA3199A42E8D3A01903906B
:10141000C4F13C010C980691814209DA401A089007
:101420004FF6EF71BDF838000840ADF83800ECE039
:10143000002840F1EA809DF8380000F014001028E0
:1014400040F0E3800D98059A801A089A801A441A91
:10145000012CC0F2DA800894D7E09DF83A006228A7
:101460001AD0682806D06A280CD06C281CD07128A5
:1014700008D019E02868286050F8041B28600B98F1
:101480000880C2E02868286050F8042B28600B9878
:10149000C117C2E90001B8E02868286050F8041BB1
:1014A00028600B980870B0E02868286050F8041B8A
:1014B00028600B980860A8E02868C01D20F007028B
:1014C0002A60D2E9000108322A60CDE90001002932
:1014D00002D505982D210AE0BDF83800810702D514
:1014E00005982B2103E0C00705D50598202100F8B9
:1014F0000A10401C059011A8059908180390214670
:10150000684600F0E1F980E09DF83A006C280DD0C3
:10151000712818BF6A2809D12868C01D20F0070269
:101520002A60D2E9000108322A6005E029682960B2
:1015300051F8040B29600021CDE900019DF83A0023
:10154000682803D1DDE9000180B20BE0622803D1F5
:10155000DDE90001C0B205E0742818BF7A2804D183
:10156000DDE900010021CDE900019DF83800000708
:101570002ED5DDE90001002908BF002828D044F05D
:101580002000782824D10598302100F80A10401C4A
:10159000411C059100F80A401AE09DF83A002946DE
:1015A00000F0D8F8CDE90001002902DA05982D21D4
:1015B0000AE0BDF83800810702D505982B2103E029
:1015C000C00705D50598202100F80A10401C059099
:1015D00011A80599081803902146684600F0F1F813
:1015E00013E0012005902868286050F8041B28604B
:1015F0008DF8441009E025208DF844000120059065
:101600001CB18AF80140022005900D980599401AF6
:101610000899401A0699401A0999401A0799401AE0
:101620000A99441A9DF83800400710D42020012C54
:101630008DF840000BDB2646012310AA6946404680
:1016400000F09DFB002840F08080761EF4D1DDF88C
:1016500014B0BBF1000F11AE0CD016F8011B0298AC
:10166000C0470028029070D00B98401CBBF1010BC2
:101670000B90F2D130208DF84000089E012E09DB3E
:10168000012310AA6946404600F079FB00285CD18E
:10169000761EF5D1DDF818B0039EBBF1000F0CD01B
:1016A00016F8011B0298C047002802904DD00B98F5
:1016B000401CBBF1010B0B90F2D130208DF84000A3
:1016C000099E012E09DB012310AA6946404600F05D
:1016D00056FB002839D1761EF5D103980699DDF81E
:1016E0001CB00E18BBF1000F0BD016F8011B0298AE
:1016F000C047029048B30B98401CBBF1010B0B9004
:10170000F3D130208DF840000A9E012E08DB012322
:1017100010AA6946404600F032FBB0B9761EF6D1F9
:101720009DF8380040077FF572AD2020012C8DF820
:101730004000FFF66CAD012310AA6946404600F058
:101740001EFB10B9641EF6D161E54FF0FF3021B0E9
:10175000BDE8F08F622826D068281DD06A2808D0FE
:101760006C2827D0712804D0742823D07A280CD074
:1017700020E00868C01D20F007000860D0E90023C1
:10178000083008601946104670470A680A6052F827
:10179000040B0A60002170470A680A6052F8040BC3
:1017A0000A6000B20BE00A680A6052F8040B0A6093
:1017B00040B204E00A680A6052F8040B0A60C117DC
:1017C00070472DE9FA4E05460A462F696F2A08BF71
:1017D000082405D041F02000782814BF0A241024E2
:1017E0003C26D5E90001642A18BF692A81468A4649
:1017F00005D1002903DAD9F100096AEB4A0ABAF1E6
:10180000000F08BFB9F1000F0CD1286B50B9082C9C
:1018100036D195F83800000732D530203B2687F8BE
:101820003B002DE0E31748465146224600F024FBDA
:10183000A4FB0023A9EB02023032D2B2A6F1010BC5
:101840003A2A5E4603DB9DF80030513B9A180BF8AC
:10185000072081465FEA010A08BFB9F1000F03D0F3
:10186000E868F1198842DDD3082C09D195F83800D1
:10187000000705D5F05D302802D0761E3020F055E7
:10188000C6F13C00A861F119E960296B884208DAC9
:10189000081A28624FF6EF71288F08402887BDE8A4
:1018A000F38E00290ED595F8381001F01401102997
:1018B00008D1696B6A69891A2A6A891A0E1A012E77
:1018C000A8BF2E62BDE8F38E2DE9F34F8BB0D0E9AF
:1018D0000089006B002801AF48BF062005D404BF73
:1018E00041F02000672802D101200B99086340F2E3
:1018F000FF720B984168C1F30A50904220D108034F
:1019000002BF0B98006800280AD10B990320886158
:101910009DF8300061381A2858D30FF2A44109E02D
:101920000B99032088619DF8300061381A284AD34A
:101930000FF284410B98C068032200F015FB00E110
:10194000012807DA0B9800F04AFB012802DB00238C
:101950000026EDE00B9ADFF854B1526840F2FE31F8
:1019600061F31E520B994A6040F2FE31461A40461E
:1019700049460022002300F053FB38BF89F000499C
:1019800036B247F297507043494990FBF1F636B2B0
:10199000C6F10707012F92461BDBF80707D5524611
:1019A0005B464046494600F053FB80468946504618
:1019B000594652465B467F1000F04AFB002F824694
:1019C0008B46EAD126E00FF2EC31B3E70FF2EC31AF
:1019D000B0E77F420024374D12E0F80707D55246A2
:1019E0005B462046294600F033FB04460D46504630
:1019F000594652465B4600F02BFB7F1082468B46D1
:101A0000002FEAD14046494622462B4600F0F2FB21
:101A1000804689469DF83000DFF89CB040F02005F4
:101A2000662D0CBF06F10A0006200B99096B4718BA
:101A3000142FA8BF132730208DF804000DF10504E2
:101A4000012F3BDB4046494600F000FD014604F112
:101A5000080204234FF00A0CB1FBFCFC0CEB8C04D5
:101A6000A1EB4401303102F8011C0A21BCFBF1FE5C
:101A70000EEB8E04ACEB440430345B1E714602F86E
:101A8000024DE7D1083F012F02F10804D8DB00F036
:101A9000F3FC02460B464046494600F0FBFC0022A0
:101AA0005B4600F0D5FA80468946CBE7000024402B
:101AB000A08601000000F03F84D797410DF105009A
:101AC000201A0DF1050702E0401E761E7F1C3978B2
:101AD0003029F9D0662D02D136B2711C03E0652D94
:101AE0000CBF012100210B9A126B8B181BB298427C
:101AF000B8BF03461BB219001AD4814204DAC85D8C
:101B00003528A8BF392000DA3020CA19521E00E05B
:101B10005B1E12F80149491E8442F9D0392802D1CE
:101B2000C85D401CC855002902D57F1E5B1C761C71
:101B300036B29DF830100B9800961BB23A4600F072
:101B400003F80DB0BDE8F08F2DE9F04786B00646EA
:101B50008A4690461D4600F07AFD012D406A376B9B
:101B600090F8009002DA01250FF258284AF0200080
:101B7000BDF93840662808BF641C13D0672840F0C0
:101B8000888014F1040F73DBBC4271DA96F83800D8
:101B9000641C000702D4BD42B8BF2F4624B23F1BCD
:101BA00048BF002724B2F068B169012C21DA4A1C31
:101BB00030230B54012F03DA96F83810090702D5A9
:101BC00002F80090521CB261E742B8BF7C4224B2D6
:101BD0006142E7197162AF42B8BF3D46B3692DB2A9
:101BE000F5612A464146181800F0BEF9781BB0622C
:101BF000AEE00818A54216DA2A46414600F0B4F9CC
:101C0000B1696918601B012FB161706203DA96F83F
:101C10003800000705D5F06801F80090F069401C15
:101C2000F061B76294E02246414600F09DF9B06948
:101C300020182D1B012F03DA96F83810090703D559
:101C4000F16800F80190401C2DB2B061AF42B8BFFE
:101C50003D46F068B3692DB22A4604EB0801181816
:101C600000F082F9B0692818B061781B70626FE0EB
:101C7000BD4204DA96F83810090758BF2F467F1E78
:101C800048BF0027BAF1670F0CBF4FF0650A4FF04D
:101C9000450AB169F0684A1CB261012F18F8013B8E
:101CA0000B5403DA96F83810090715D5531CB361A5
:101CB00002F80090012F0FDB6D1E2DB2AF42B8BFAE
:101CC0003D462DB22A464146181800F04DF9B0693C
:101CD0002818B061781B7062F068B169091820009B
:101CE00081F800A004D42B20487001F1020804E020
:101CF0002D224A7001F102086442002502AF08E07B
:101D00000A22684600F0BCFC019807F8010B6D1C24
:101D1000009C21B20129F3DA022D06DA4AF02000F4
:101D2000652804BF302008F8010B4DB9302008F8B1
:101D3000010B07E06D1E02A8285C303008F8010B8B
:101D4000012DF7DAF068B1690818A8EB0000F0611E
:101D500096F8380000F0140010280DD17069B169B0
:101D60000818716A0818F1690818B16A0818716BC7
:101D70008842BCBF081A306206B0BDE8F087F8B5EB
:101D800004460D4616461F46002077B116F8011B83
:101D9000A868A047A86030B1E86A401CE86200204B
:101DA0007F1EF3D1F2BD4FF0FF30F2BD686A6C7454
:101DB0007A4C00006E616E004E414E00696E660006
:101DC000494E460030000268531C03601170704792
:101DD0000278C9B28A421AB11CBF10F8012FF9E784
:101DE00018BF00207047000000F10103810704D0F4
:101DF00010F8011B89B18107FAD10268B2F10131F3
:101E0000914311F0803F04BF50F8042FF6E710F81B
:101E1000011B11B110F8011BFBE7C01A704700004D
:101E2000C9B2830706D0521E22D310F8013B994253
:101E3000F7D11FE0083A13D302F1040241EA01216D
:101E400041EA014150F8043B121F21BF4B40A3F16E
:101E5000013C2CEA030C1CF0803FF3D0C9B2001FF8
:101E6000083210F8013B521E28BF91EA030FF8D840
:101E700018BF0120401E70471B4213D1094236D1C2
:101E80002AB18446B0FBF2F002FB10C2704700F0AA
:101E9000FFBBFCD30022002370470B00020000218F
:101EA00000207047904271EB030CF6D370B5B1FA85
:101EB00081F4B3FA83F52C1BA340C4F1200532FA58
:101EC00005F63343A2405FF00046E64002E05B08BF
:101ED0005FEA3202841A71EB030524BF20462946CB
:101EE0007641F4D302000B003000002170BD012ABE
:101EF000CFD970B5140C20D0B1FA81F4B2FA82F5C2
:101F0000C4F120046419B4F12006D6D3B2405FF0C6
:101F10000044F440002502E052085FEA3303C61A89
:101F200071EB020E24BF3046714664416D41F3D31C
:101F300002000B002000290070BD0C46B1FBF2F13D
:101F400002FB11452D0445EA1045B5FBF2F402FBF6
:101F5000145580B240EA0545B5FBF2F002FB105281
:101F600040EA044070BD000062B38B0708D0521EE7
:101F700011F8013B00F8013B00F024808B07F6D1FB
:101F8000830740F0208000BF103A07D330B4B1E897
:101F90003810103AA0E83810F9D230BC530724BFEB
:101FA000B1E80810A0E8081044BF51F8043B40F81D
:101FB000043BD20724BF31F8022B20F8022B44BF88
:101FC0000B7803707047083A07D3B1E80810083A55
:101FD00040F8043B40F804CBF7D25307E4E730B4B1
:101FE000436803F0004201211B031B0B436004BF45
:101FF0000368002B08D10DE00368DD0F45EA4404B7
:1020000044605B000360491E4468E302F4D5230387
:102010001B0B436043681A434260084630BC70475C
:102020004FF4001C1CEB410F94BF1CEB430F09E065
:1020300041EA030C50EA4C0C52EA0C0C03D29942D0
:1020400008BF9042704714BF8B4282427047000025
:10205000B0B581EA030C0CF0004C40F2FF7515EAB4
:1020600011541DBF15EA1357AC42AF4239E0E419D1
:1020700023EA455343F48013C90241F0004141EA89
:10208000505EC7021100A7FB020200284FF00000BB
:10209000EEFB01204FF00001E3FB072118BF42F0E7
:1020A0000102401800214941E3FB0E01A4F58064C0
:1020B0000F0302D252004041494154F101046CDD4A
:1020C000470872F1004250F1000051EB0451A1F5B4
:1020D00080115CBF41EA0C01B0BD4CEA0551002003
:1020E000B0BD05EA1357AC4214BFAF4241E050EA1D
:1020F000410E1CBF52EA430E02E061460020B0BD13
:1021000024423C441BD15FEA070EF6D0090302BF0C
:1021100001460020AEF1140EB1FA81F7AEEB0704D0
:1021200001FA07FE0C37C7F1200100FA07F7C84093
:102130004EEA000E23EA455343F48013A2E733F03E
:102140000043B3FA83F704BFB2FA82FE77440B3F31
:10215000E41BB7F1200E2FBF02FA0EF3BB40C7F10C
:10216000200E22FA0EFE38BF43EA0E03BA40641C6A
:1021700082E750EA410E14BF52EA430E6FF00001AD
:102180004FF4001717EB430F8ABF194617EB410FA7
:10219000B5E74CEA05510020B0BDD4F10104B4F11B
:1021A00020070FDAC4F12007520828BF42F00102CD
:1021B00010FA07F501FA07F7E1BF2A43E040384378
:1021C000E1400FE0352C98DCC7F1200452EA4002D0
:1021D00020FA07F218BF42F0010231FA07F0A140DD
:1021E0000A43002172F1004250F1000051EB0C0152
:1021F000B0BD00002DE9F04140F2FF7581EA030C0B
:102200000CF0004C15EA11541DBF15EA1357AC42EF
:10221000AF42E9E0BC41C1F31301C3F31303801AD9
:10222000994143F4801304D2641E40004941801850
:102230005941C90241EA5051B1FBF3F603FB1611B3
:10224000A2FB0675D7EBC020A94102D2761E8018EA
:102250005941C90241EA5051B1FBF3FE03FB1E1183
:10226000A2FB0E75D7EBC020A94103D2AEF1010E3F
:1022700080185941890241EA9051760546EA8E2E2E
:10228000B1FBF3F603FB1611A2FB0675D7EB80201A
:10229000A94102D2761E80185941C90241EA505123
:1022A0004EEA060EB1FBF3F603FB1611A2FB067510
:1022B000D7EBC020A94102D2761E80185941C9022D
:1022C00041EA5051B1FBF3F703FB1711A2FB0735AD
:1022D000D3EBC020A94167F100070CBF004247F0D3
:1022E000010766F3D5274FEA1E31B80814F580645C
:1022F00014DDBD0775F1004250EB0E5051EB045157
:1023000011F5801F5CBF41EA0C01BDE8F0814CF083
:102310007F6141F0E0410020BDE8F081BD076D081C
:1023200040EA0E5041F48011D4F10104B4F12006CA
:102330000ADAC4F120060200E04001FA06F3E140A7
:102340001843B24015430EE0342C14DCC6F12004CF
:1023500045EA40056D0820FA06F2154321FA06F019
:10236000A1400D43002175F1004250F1000051EBF6
:102370000C01BDE8F08100205FEA0C01BDE8F081AE
:10238000CFB992185B41B3FA83F704BFB2FA82F671
:10239000BF190B3FB7F120062FBF02FA06F3BB406F
:1023A000C7F1200622FA06F638BF3343BA401CB103
:1023B000E419641E2FE77F4231F00041B1FA81F445
:1023C00004BFB0FA80F6A4190B3CB4F120062FBF6D
:1023D00000FA06F1A140C4F1200620FA06F638BF43
:1023E0003143A0403C1B16E7AC421ABF05EA135725
:1023F000AF4214E050EA41061CBF52EA4306BFE771
:1024000050EA4107304661461CBF41EA0551BDE82C
:10241000F08152EA430C08BFC143BDE8F0810020BF
:102420004FF4001616EB410F98BF16EB430F08BF91
:1024300016EB410F24BFC14305E016EB430F0CBF61
:1024400061464CEA0551BDE8F0810000400D40EACC
:10245000C120490080F00D8040F00040490DA1F5F9
:102460008061491C05D4D1F11F0154BFC840C01779
:1024700070474FF000007047010000BF09D0B0FA6C
:1024800080F18840C91CC1F58461090501EBD021A8
:1024900040057047F0B44FF0004591EA030F44BF88
:1024A0006B4000F0F7B800BF841A71EB030604D24A
:1024B0006E40001BB141121973414FF4001C1CEB1C
:1024C000410F34BF7CEB430684E00C0DA4EB1356A4
:1024D000362E7DDC012E43DC45EAC32343EA52530A
:1024E00012BFD20292025B08240545EAC12141EAEB
:1024F0005051D2EBC020994125D407D1B0FA80F6D3
:1025000010FA06F164D00020203608E0B1FA81F616
:10251000B140C6F1200220FA02F21143B0404FEA66
:10252000F474B4EB465434F001064FEA74040AD84C
:10253000D6F50016760D04F00044F04061FA06F27C
:102540005040F1404840C00A40EA415021F000416B
:1025500028BF5FEA500550F1000044EBD12137E07D
:1025600045EAC323DB0A45EAC121C90AB6F12005C1
:102570000EDD42EA0242120CC5F1200603FA06F60D
:10258000EB4042EA06056D42984161F100010DE021
:1025900062FA06F5F240554063FA06FC82EA0C0244
:1025A000F3405A406D42904161EB030111F4801FEA
:1025B00005D1641E620502D06D004041494121F4FD
:1025C0008011430875F1004350F1000041EB0451C4
:1025D000F0BC70471CEB410F15D223F0004352EAC8
:1025E00043060BD04FEA4C0CBCEB410F04D80C0D4A
:1025F000661E342EB7DDEBE7801A994150EA41069A
:1026000008BF0021E4E708BF1CEB430F28BF6FF0B1
:102610000001DDE780B5134800F0A6F80FF24C0288
:102620000FF244010160426241600FF24402826392
:1026300081600FF24402C160016141618161816288
:10264000C16201634163C2630164416401BD10B5AD
:10265000044800F089F80446206808B9FFF7DAFF5B
:10266000204610BDCC000020000000002E0000001D
:1026700066616C736500000074727565000000008F
:1026800091FBF2F303FB1211C0E900317047000027
:1026900070470000841A71EB030603D2001BB1419E
:1026A000121973414FF4001C1CEB410F34BF7CEB3B
:1026B000430443E00C0DA4EB1356352E50DC45EAE1
:1026C000C323DB0A45EAC121C912B6F120050DDD9D
:1026D00063FA05F6EB4086EA0305124218BF45F09F
:1026E0000105C01851F100010CD213E062FA06F5A1
:1026F000F2405540F3415A40B340F3405A408018ED
:10270000594107D349085FEA30005FEA350528BF21
:1027100045F0010501F58011420875F1004250F1C4
:10272000000041EB0451F0BC4FF4001C1CEB410FC6
:1027300038BF70470020090D090570471CEB410F99
:1027400010D252EA43060BD0BCEB410F05D80C0D5A
:10275000AB43661E342EB5DD02E0AB438018594111
:10276000F0BC7047F0BC704770470000DFF81C09F0
:1027700090ED010ADFED7E0A20EE200ADFF8100955
:1027800080ED000A7047000010B480B200EE100A1D
:10279000B8EE400A80B2D0F5006100EE901AF8EE73
:1027A000E00A80EE200AF1EE400A9FED721A60EE18
:1027B000810A002189B2B1F57A7F28DADFF8D428BE
:1027C00089B232F8212092B201EE102AF8EE411AB5
:1027D000B0EE601A01EE801A92B201EE902AF8EE85
:1027E000611A31EE811AB5EE401AF1EE10FA03D5F6
:1027F000DFEDB01AB0EE611ABDEEC11A11EE103A5B
:10280000DFF8904889B224F82130491CD2E710BC87
:102810007047DFF88408006842F21071884201D1E5
:102820000B2013E0DFF870080068DFF870188842AA
:1028300001D107200AE0DFF860080068DFF86018BF
:10284000884201D1072001E04FF6FF70704780B544
:102850000020DFF850180870DFF84C0800780028D6
:1028600006D142F2107000F093FC00F048FE01E047
:1028700000F066FEDFF830080078012804D142F24B
:10288000107000F085FC12E0DFF81C0800780228C8
:1028900004D142F2107000F07BFC08E0DFF8080879
:1028A0000078032803D1DFF8F40700F071FC00F092
:1028B0006BFE01F02FF901F051FB0020DFF8EC175F
:1028C000087001BD80B5DFF8E0070078002808D067
:1028D00002280CD008D3042811D00DD3052811D01C
:1028E00017E000F01CF814E000F0E6F811E001F049
:1028F0009FFA00F0E1F80CE001F019F909E000F0AE
:102900005BFE06E001F065FC002801D000F02FF925
:10291000FFE701BD0020DFF88C170870704780B515
:10292000DFF880070078002808D100F0DBFD00F018
:10293000FBFB0120DFF86C17087018E0DFF8640774
:102940000078012813D1DFF86807007802280ED13B
:102950000220DFF850170870FFF75BFF80B2FFF727
:1029600013FF00F009F80320DFF83817087001BDE5
:1029700009CA294100000045F0B585B0B6EE000A4D
:1029800000F05AFB050000200400E4B2142C29D208
:10299000E4B2322014FB00F0001D80B246002A2170
:1029A000DFF8F006B6B210EB460000F0F9F9DFF8F8
:1029B0000417E4B221F814002A21DFF8D806B6B2D1
:1029C00010EB460000F026FA0700ADB2BFB2BD42E0
:1029D00006D20320DFF8E016087000F0AEF867E0DA
:1029E000641CD2E70026002700200400E4B2142C67
:1029F00029D2E4B2022094FBF0F06946DFF8B42655
:102A0000E4B232F91420DFF8AC36E4B213EB44033D
:102A1000B3F90230D21A21F81020E4B2022094FB5C
:102A2000F0F0694631F91000832800DB761CE4B22F
:102A3000022094FBF0F0694631F910001E2800DAFC
:102A40007F1CA41CD2E7F6B20A2E08D10020DFF8C2
:102A500068160870DFF864060021016028E0FFB204
:102A60000A2F1FD1DFF84C060088B0F5827F06DD03
:102A70000220DFF84416087000F045F818E0DFF88F
:102A800034060088822806DA0120DFF82C16087048
:102A900000F039F80CE00420DFF81C16087000F094
:102AA00032F805E00420DFF81016087000F02BF86B
:102AB00005B0F0BD0000000080B5DFF8E805007843
:102AC000002806D100F030FB0120DFF8D81508708F
:102AD00018E0DFF8D0050078012813D1DFF8D00521
:102AE000007802280ED10220DFF8B8150870FFF731
:102AF00090FE80B2FFF748FE00F005F80320DFF8F3
:102B0000A415087001BD38B540F2E531DFF8B00515
:102B100000F046F9040040F2E531DFF8A80500F0C6
:102B20003FF90500290089B2200080B200F004F9C5
:102B3000DFF8880580ED000A31BD38B540F2E53197
:102B4000DFF87C0500F048F9040040F2E531DFF8D9
:102B5000740500F041F90500290089B2200080B217
:102B600000F0EAF8DFF8540580ED000A31BD80B5C9
:102B7000DFF83805007800280CD10120DFF82C158B
:102B80000870DFF84405006810F5FA60DFF83C15BE
:102B900008602CE0DFF838050078002803D0022810
:102BA00023D013D323E0DFF824050068DFF81815DD
:102BB0000968884209D20120DFF81415087042F232
:102BC000107000F0E5FA00F0AFFA10E0DFF8E00472
:102BD0000078022808D1FFF71CFE80B2FFF7D4FD71
:102BE00000F006F800F0A0FA01E000F05BF801BD8B
:102BF00010B52DED028B84B0DFF8D40400780128E5
:102C000034D140F2E531DFF8B80400F0C9F804002F
:102C10000021200080B200F08FF8B0EE408A9FEDD6
:102C20005E0AB4EE408AF1EE10FA1BDB40F2E532A8
:102C3000DFF88C14684600F017F99DF80C000028A6
:102C400003D09FED560AB0EE408A200080B200F01B
:102C500011F800F027F8002808D00220DFF87014DF
:102C6000087003E0200080B200F004F804B0BDEC6E
:102C7000028B10BDDFF85C14DFF85C24127821F8B9
:102C80001200DFF854140978491CDFF84C24117045
:102C9000DFF8441409780A2903DB0021DFF838241F
:102CA0001170704710B52DED048B0021DFF824045E
:102CB000008800F041F8B0EE408AF0EE488AB0EEAD
:102CC000489ADFED369A0024E4B20A2C1CDA00217F
:102CD000DFF80004E4B230F8140000F02DF8B0EE94
:102CE000408AB4EE489AF1EE10FA02D5B0EE489A56
:102CF00006E0B4EE688AF1EE10FA01D5F0EE488AEB
:102D000079EE889A641CDFE739EE680ADFEDA90ADC
:102D1000B4EE600AF1EE10FA09D5F2EE040AC9EE3B
:102D2000A00ADFF8B803C0ED000A012000E000208F
:102D3000BDEC048B10BD000038B504000D009FED04
:102D40009E0A00F079F9A4B2A04212D2A4B200EE19
:102D5000104AB8EE400ADFEDCA0A20EE200ACC483D
:102D6000D0ED000A20EE200ADFEDC60A80EE200A30
:102D700011E0ADB200EE105AB8EE400ADFEDC00A25
:102D800020EE200AD648D0ED000A20EE200ADFED22
:102D9000BD0A80EE200A31BD010040400000000065
:102DA00010B4020089B2002901D1002012E00020F5
:102DB000002423009BB289B2B3EB410F06DA9BB229
:102DC00032F8134010FA84F09B1CF3E789B2B0FB91
:102DD000F1F080B210BC704710B4020089B2002933
:102DE00001D1002014E00020002423009BB289B20E
:102DF000B3EB410F0BDA9BB232F8134080B2A04222
:102E000003D29BB232F8134020009B1CEEE780B245
:102E100010BC704730B4020089B2002901D10020F3
:102E200020E01088148800252B009BB289B2B3EBF8
:102E3000410F15DA9BB232F81350A4B2AC4203D260
:102E40009BB232F813502C009BB232F8135080B270
:102E5000854203D29BB232F8135028009B1CE4E752
:102E6000201A80B230BC70472DE9F84F2DED028B4F
:102E700084B007000C0015009A480FC8EC468CE897
:102E80000F00ADB2002D04D168460FC887E80F00CF
:102E90008BE0B4F800B0B4F800A05FF000095FF078
:102EA000000800200600B6B2ADB2B6EB450F19DA45
:102EB000B6B234F816001FFA8AFA824504D2B6B2C6
:102EC00034F816008246B046B6B234F816001FFA3F
:102ED0008BFB584504D2B6B234F816008346B1468F
:102EE000B61CE0E71FFA88F814EB480041881FFA87
:102EF00088F834F81800FFF71FFF8DED010A1FFA5C
:102F000089F914EB490041881FFA89F934F819004E
:102F1000FFF712FF8DED000AADB2680014EB400020
:102F200030F8021CADB2680014EB400030F8040C1D
:102F3000FFF702FF8DED020A9DED010ADDED000AAB
:102F400030EE608A9FED1B0AB4EE408AF1EE10FA73
:102F500004D568460FC887E80F0026E09DED010AFA
:102F6000DDED000A30EE200AF0EE000AC0EE208A05
:102F7000B0EE680A290089B2200000F01FF88446EC
:102F80001FFA8CFCBCF1010F04D01FFA8CFCBCF1C1
:102F9000020F03D101218DF80C1002E002218DF8FF
:102FA0000C1068460FC887E80F0004B0BDEC028B18
:102FB000BDE8F28F9A99193E3333334038B52DED81
:102FC000028B04000D00B0EE408AADB2002D01D19D
:102FD00000202EE0B0EE480A00F02EF8010000209C
:102FE00002231A0092B2ADB2B2EB450F20DA92B2D0
:102FF00014EB420333F8043C89B28B4207D392B2FC
:1030000034F8123089B28B4201D2401C0EE092B2E9
:1030100014EB420333F8043C89B28B4206D292B2DD
:1030200034F8123089B28B4200D3401C921CD9E78D
:1030300080B2BDEC028B32BDB5EE400AF1EE10FA63
:1030400001D500201BE01248D0ED000AC0EE200A96
:103050009FED0C1A60EE810A9FED091AC0EE810AFD
:103060009FED091AF4EE410AF1EE10FA02DB40F688
:10307000FF7004E0FDEEE00A10EE900A80B27047A7
:103080007B144E4000F07F4501F07F4554550020F1
:103090000C0000205839002084550020400D03000A
:1030A00080841E00ED550020F9550020F0550020C9
:1030B000EA550020F8540020EE55002098550020D5
:1030C0006439002066390020DC5500209C55002022
:1030D000EF55002020550020F1550020A05500207C
:1030E000100000201897000880B500F087F800F065
:1030F00060F800F04DF901BD80B5CA4800884FF670
:10310000FE710840C7490880022001F03FFB0028FB
:1031100009D0022001F04FFB0021C34801F01DFB44
:103120000220C249087001BD80B50021BE4801F0EF
:1031300014FB022001F03FFB4FF47A70BC49086099
:10314000BC480068BC49086014215FF0A04001F051
:10315000F1FC1421B94801F0EDFC0121B24801F065
:10316000FCFAB64801F0B8FC5FF0A04001F0B4FCF6
:1031700000F001F801BD80B50021AA4801F0E0FD92
:103180000120AA4908700121A64801F0F4FD01BD03
:1031900038B50400AA480068B0FBF4F5B5F5803FE7
:1031A00000D3FEE7A7480460691E9E4801F0CAFDEF
:1031B00031BDE0B501214FF4005002F0F0F968464E
:1031C00001F0B2FD974801F0C5FC0020ADF8000009
:1031D0004FF47A7001900020ADF808000020ADF89F
:1031E000020069468F4801F051FD20218D4801F011
:1031F00078FE01218B4801F0A7FD07BD00B58FB017
:103200004FF4807002F09EF901215FF0805002F0CF
:10321000B7F901215FF4003002F0B2F901215FF447
:10322000802002F0ADF90121012002F0A9F96846E1
:1032300002F0BAFA03208DF8040000208DF8070090
:103240000420009069465FF0904002F04DFA402063
:10325000009069465FF0904002F046FA5FF0A040AF
:1032600001F0D2FA754801F0CFFA01215FF0A040D9
:1032700001F087FB0121714801F083FB4FF47A7064
:1032800002F07AFB00215FF0A04001F066FB5FF0E6
:10329000A04001F05DFB5FF0A04001F066FB00285C
:1032A000F9D10021654801F058FB644801F050FB5A
:1032B000624801F05AFB0028FAD102A801F030FB65
:1032C000062002905FF4803003904FF40040049099
:1032D0000020059000208DF8180002A95FF0A040A2
:1032E00001F0EAFA07A801F0D6FA002008900020C1
:1032F00007904FF4E07009904FF480600A9000202E
:103300000B904FF480500C9000200D9001208DF810
:10331000380007A95FF0A04001F09DFA07A94748CF
:1033200001F099FA0023012203215FF0A04001F08F
:1033300039FB002301220321404801F033FB002127
:103340005FF0A04001F0E2FB01215FF0A04001F03E
:10335000D0FB01215FF0A04001F0EDFA01213748D8
:1033600001F0E9FA01215FF0A04001F0D7FB00284D
:10337000F8D00121314801F0D1FB0028F9D02F48C5
:1033800001F0AAFB5FF0A04001F0A6FB0FB000BD6A
:1033900000B58DB00121012002F0F2F8224801F0C1
:1033A00021F901A801F0C2F92748019027480290AD
:1033B000002003904FF47A70ADF8100000200590C3
:1033C000802006904FF4007007904FF40060089042
:1033D000002009904FF440500A9000200B9001A962
:1033E000114801F084F9022001F0E5F901210E48AD
:1033F00001F0B3F90B208DF8000001208DF80100D9
:1034000000208DF8020001208DF80300684602F0CC
:10341000E0FA01220221044801F0ADF90DB000BD2F
:10342000000000000034014008000240EA5500207E
:103430000C00024000000020140002400001005077
:10344000B8000020845500200C030050583900209B
:1034500000B589B00121022002F0B0F801215FF42B
:10346000802002F08DF8684601F05EFC424801F0D1
:1034700071FB1F20ADF8000040480068400964213E
:10348000B0FBF1F0401E01900020ADF808000020D4
:10349000ADF802006946384801F0F8FB01213648D2
:1034A00001F052FC03A801F0A4FC6020039001206D
:1034B000ADF810000198400805900020ADF8180004
:1034C00003A92D4801F065FC08212B4801F0A4FC5C
:1034D0000121294801F0AAFC0121274801F04BFCF9
:1034E00009B000BD80B50021234801F044FC002054
:1034F000234908600121204801F03DFC01BD00B5D1
:1035000083B0684602F050F98020009002208DF8C8
:10351000040000208DF8060002208DF80500002030
:103520008DF807006946174802F0DEF80A220721E5
:10353000144802F04AF901210F4801F077FC07BD59
:1035400000B583B0684602F02FF980200090032078
:103550008DF8040000208DF8060002208DF805008B
:1035600000208DF807006946064802F0BDF80021EA
:10357000014801F05BFC07BD00040040B8000020DA
:10358000240400400004004880B50020DFF838150E
:103590000870DFF838050078042803D142F2107073
:1035A000FFF7F6FD01BDDFF82805007890F0010077
:1035B000DFF81C150870704780B5DFF80C0500783F
:1035C000002806D1FFF7B0FD0120DFF8FC140870D9
:1035D0001AE0DFF8F4040078012815D1DFF8F404CC
:1035E0000078022810D10220DFF8DC140870FFF701
:1035F00010F980B2FFF7C8F800F007F800F03EFAC3
:103600000320DFF8C414087001BD30B585B0DFF8C1
:10361000C0040078002828D04FF47672DFF8B81480
:103620006846FFF721FC68460FC8DFF8B04484E81D
:103630000F00DFF8AC040088401CDFF8A4140880F9
:10364000DFF89C040088A02803DB0020DFF890143A
:103650000880DFF888040FC8DFF88844DFF880545A
:103660002D8814EB051484E80F0005B030BD00B5BB
:1036700083B0DFF85C040078002817D1DFF8680415
:1036800000684FF47A71B0FBF1F201FB1200B0F563
:10369000FA7F0BD202200190002000900823002224
:1036A0000021DFF8480402F01CFA0AE0052001902E
:1036B00000200090082300220021DFF8340402F0EB
:1036C00010FA07BDF0B58BB00400E4B2002C08D1AD
:1036D00002F0CDF92000C0B202F0D9FD02F0F1F9FC
:1036E00053E0DFF8E403007800280DD0DFF8D803BA
:1036F0000078032808D10020DFF8CC1308700120DF
:10370000DFF8F013087040E0DFF8E80300780128E4
:103710003BD12000C0B202F0BAFD2025002602AF46
:1037200032002900380003F0C7F9DFF8CC0390ED30
:10373000000ABDEEC00A10EE103ADFF8C00390EDAB
:10374000000ABDEEC00A10EE102ADFF8B41302A87A
:1037500003F0E6F9092102A803F082F901200190A3
:1037600000200090082300225A2102A802F0B9F993
:1037700000F074F900F0DAF800F016F900F007F83C
:1037800002F09FF90020DB4908700BB0F0BD2DE975
:10379000F0412DED028B82B04D26D148B0F90000EA
:1037A000441C24B2A02C01DB00200400CD4824B22C
:1037B00010EB041090ED010A00F03AF90600002524
:1037C0002DB2A02D80F28580C64824B210EB0410E3
:1037D000007B00282FD1C34824B210EB041090EDD9
:1037E000010AC04824B210EB0410D0ED000A30EEFC
:1037F000200AF0EE000A80EE208AB0EE480A00F0BF
:1038000017F907000122390089B2280080B202F0BE
:103810001FF9B6B2BFB2F01B03F09CF9032808DB16
:1038200001233A0092B2310089B2280080B202F03E
:1038300071FC3E0045E0AB4824B210EB0410007B65
:10384000012824D1A74824B210EB041090ED010AFE
:1038500000F0EEF80700A34824B210EB041090ED3E
:10386000000A00F0E5F8804601233A0092B2414692
:1038700089B2280080B202F04DFC9A4824B210EBC5
:10388000041090ED020A00F0D3F8060019E0954804
:1038900024B210EB041083B069460CC80CC10CC8EC
:1038A0000CC1103810390EBC280080B200F016F898
:1038B0008C4824B210EB041090ED020A00F0B8F826
:1038C0000600641C24B2A02C01DB002004006D1C47
:1038D00076E702B0BDEC028BBDE8F0810EB4F0B526
:1038E00004009DED060A00F0A3F805009DED050A11
:1038F00000F09EF806002F00B6B2BFB2BE4208D359
:103900000322390089B2200080B202F0A1F8BF1C66
:10391000F2E70322310089B2200080B202F098F869
:10392000300080B2F0BC5DF810FB00009FED630A30
:103930000020002189B2A02914DA6A4A89B212EB68
:103940000112D2ED010AB4EE600AF1EE10FA07D5C9
:10395000644A89B212EB0112D2ED010AB0EE600A9C
:10396000491CE7E70021C9B205290ED2654AC9B250
:1039700012EBC102D2ED000AF4EE400AF1EE10FAA9
:1039800001D54A1C1000491CEDE75E49C0B251F850
:103990003010594A11605B49C0B211EBC00149684F
:1039A000564A11607047000080B52DED028B9FEDE7
:1039B000440AB0EE408AB5EE408AF1EE10FA0CDB14
:1039C000BDEEC80A10EE100A80B200F00DF84E48A5
:1039D00090ED000A38EE408AEDE704214D2002F018
:1039E00086FBBDEC028B01BD38B52DED028B0400CA
:1039F0009FED328A404890ED000AB4EE408AF1EE25
:103A000010FA11D5B0EE480A00F012F805000522B0
:103A1000290089B2200080B202F01AF8374890EDF0
:103A2000000A38EE008AE5E7BDEC028B31BD0000EC
:103A3000DFED240A60EE200A2F4890ED001AC0EE58
:103A4000810AFDEEE00A10EE900A80B2452801DB03
:103A500044210800D0F14D0080B2704710B5092014
:103A60000400E4B2502C07DA0021E4B2200080B256
:103A700002F03DFB641CF4E710BD00000020234968
:103A80000978002909D118490968214A1268891A58
:103A90000800154909681E4A1160B0F57A7F00D9FF
:103AA00000BF1A490978491C184A1170174909784A
:103AB0000A2902DB0021154A11707047000000003E
:103AC00000001F4300008842FD550020F9550020EA
:103AD00055010020EA550020783900206455002067
:103AE000E8550020F8480020DC550020E897000841
:103AF0008C980008FE550020500000205400002043
:103B000098980008580000204C000020FF55002025
:103B1000D855002080B56E480078032806D10120D2
:103B200003F06AF8B7EE080A03F0EAF801BD10B531
:103B300068480078002809D167480068674908602C
:103B400001206449087003F00FF93CE061480078F7
:103B5000012838D162480078002809D000F034F8F4
:103B60000400200000F092F800205A4908702AE072
:103B70005948006859490968441A40F2DD508442A6
:103B80000AD3584800880A2806DA002000F07EF898
:103B900000205049087016E0B4F5FA6F0AD9514870
:103BA0000088322806DA002000F070F80020494929
:103BB000087008E0B4F57A6F05D9002000F066F8C7
:103BC00000204449087010BD5FF0FF30002189B229
:103BD000444A1288521E91420EDA434A89B212EBCD
:103BE00081025268404B89B253F82130D21A824286
:103BF00000D21000491CEAE77047000070B53B484E
:103C000090ED000AB5EE400AF1EE10FA03D1002063
:103C10003749086039E000240025344890ED000A57
:103C2000BCEEC00A324880ED000A3248E4B250F8D7
:103C30002400002829D02F48E4B250F8240000EED8
:103C4000100AB8EE400ADFED210A20EE200ABCEE91
:103C5000C00A10EE100A05002648E4B250F824000D
:103C6000224991ED000ABDEEC00A10EE101A461A64
:103C7000300002F06FFFA84205D21E48E4B250F8AF
:103C800024001B490860641CCFE770BD10B5040018
:103C9000002C05D1154800210160FFF7AFFF13E0AC
:103CA000154890ED000AB8EE400AF0EE000A20EE4A
:103CB000200A00EE904AF8EE600A80EE200A0B48D7
:103CC00080ED000AFFF79AFF10BD0000CDCCCC3D7F
:103CD000F9550020EB550020DC55002090550020C0
:103CE000EC550020E0550020F852002088550020B7
:103CF0008C55002018950008B800002010B501214F
:103D0000DFF8DC0301F0B3F8012818D101F031FE2F
:103D100004000121DFF8C80301F0C2F800220121EC
:103D2000DFF8BC0301F08FF8DFF8B8030068201A51
:103D3000DFF8B41308600120DFF8B013087010BD7D
:103D400000B587B001214FF4006001F028FC01A804
:103D500001F02AFD02208DF808004FF480500190F8
:103D600000208DF80B0001A95FF0904001F0BCFC31
:103D70000B220C215FF0904001F027FD03A800F01A
:103D8000D3FF0020ADF80C000020ADF80E004FF678
:103D9000FF7004900020ADF8140003A9DFF8400381
:103DA00000F074FF0821DFF8380300F0DBFF002388
:103DB00000220021DFF8280301F076F87021DFF8F7
:103DC000200301F084F819208DF8000000208DF800
:103DD000010000208DF8020001208DF803006846E4
:103DE00001F0F7FD07B000BD80B50020BF490870A5
:103DF000BF480068BF4908600121B94801F033F8A5
:103E000001220121B64801F01EF80021B44800F05B
:103E100097FF01F0AEFDB3490860B148008850F04B
:103E20000100AF49088001BD0020B3490870704708
:103E300010B52DED048BB048007800280AD1AF48AA
:103E400090ED000A02F05CFFFFF7CEFF0120AA49C7
:103E500008707EE0A848007801287AD1A34800784D
:103E600000285DD00220A4490870A5480068A54933
:103E7000B0FBF1F008EE100A9C48007801281ED132
:103E8000994890ED000AB8EE400AF8EE480AC0EEF4
:103E9000208A9FED390A80EE280A10EE100A02F0FF
:103EA000A1FF0022984BFEF7D3F802F0C3FF00EE0B
:103EB000100ABCEEC00A954880ED000A2CE0944838
:103EC0000068062825D3884890ED000AB8EE400A1D
:103ED000F8EE480AC0EE208A8D4890ED000AB8EE50
:103EE000400A80EE280A10EE100A02F07BFF002242
:103EF000854BFEF7ADF802F09DFF09EE100AB0EE1B
:103F0000490A02F0E9FFBCEEC00A804880ED000AD1
:103F100002E000207D49086003207749087018E01E
:103F20007348006873490968441AB4F57A7F10D958
:103F30006B4800884FF6FE7108406949088001F01F
:103F400018FD68490968411A674A11600221674AE9
:103F5000117000F013F8BDEC048B10BD80B56D48F6
:103F60000078022806D1022002F046FE63485FF086
:103F70007F51016001BD000000FF7F4780B52DED3E
:103F8000028B84B0644800786449097888420BD079
:103F900062480078012840F099805548006810F583
:103FA000FA605F49086091E05C480078012818D108
:103FB0005B4800684E490968884280F0878002208B
:103FC00056490870FEF7A6FC00205649087056486E
:103FD00056490160564800210160002002F073FB41
:103FE00074E04E480078022860D1524800780328D7
:103FF0006CD14C480078401C4A4908704FF47672E6
:104000004D496846FEF730FF9DED000A4648D0ED69
:10401000000AB4EE600AF1EE10FA02D542480099A7
:104020000160434890ED000ADDED010AB4EE600A3C
:10403000F1EE10FA02D501983D4908603948007840
:104040000B2830DB384890ED000A3948D0ED000AE3
:1040500030EE200A10EE100A02F0C4FE00225FF0DB
:104060008043FEF7C7F802F0E5FE08EE100A9FED68
:104070001B0AB4EE408AF1EE10FA04D51F485FF037
:104080007F51016002E01D4880ED008A0320234932
:104090000870002002F017FB1548006810F5FA6060
:1040A0001F49086016E0FEF735FC13E01B48007856
:1040B00003280BD11A4800680D490968884205D2C7
:1040C000002016490870002002F0FDFA134800781D
:1040D0001149087004B0BDEC028B01BDCDCC4C3E43
:1040E000002C0140AC550020B4550020F4550020B0
:1040F000DC550020B0550020F255002014000020AF
:10410000B800002040420F0080842E41A8550020B6
:10411000242C0140F9550020F5550020FA550020C7
:10412000B8550020F3550020080000200000FA4395
:1041300094550020ED55002078390020BFF34F8FB3
:10414000DFF83C04006810F4E060DFF8381408433E
:10415000DFF82C140860BFF34F8F00BFFDE780B578
:10416000DFF824040078002802D100F08EF801E086
:1041700000F0D4F801BD80B5DFF80C040078002809
:1041800001D100F08FF801BD80B500F0DCF801BD71
:1041900080B5DFF8F4030078002802D102F02FF890
:1041A00001E000F0ACF801BD10B5040001F05FFCC7
:1041B000DFF8D4030078002802D100F018F801E0FD
:1041C00000F084F801F07DFC10BDDFF8BC0300783E
:1041D0007047DFF8B8030078022801D1012000E021
:1041E0000020DFF8A41309780840C0B2704730B54A
:1041F00083B000240A2505200190002000900823A8
:1042000000220021DFF8880301F06BFCDFF8840353
:10421000E4B210F83400002836D0012001900020CC
:1042200000900C23EDB22A0092B20821DFF864035B
:10423000E4B210EBC400406801F053FCDFF8540313
:10424000E4B210EBC4004078D049097888420CD120
:1042500005200190002000900C23EDB22A0092B2BC
:10426000002195A001F03DFC0BE001200190002011
:1042700000900C23EDB22A0092B20021AEA001F012
:1042800030FC0D35641CC1E737BDC0480078401CC8
:10429000BE490870BD480078052802D10020BB49FE
:1042A0000870704780B5B9480078002802D101F045
:1042B000A6FF0AE00120B44908700020B649087042
:1042C00000F004F80020B549087001BD80B5AF4882
:1042D0000078012806D011D3032806D008D304287B
:1042E00009D00BE000F0EAF808E000F027F905E05B
:1042F00000F069F802E0FFF721FFFFE701BD80B59C
:104300000020A149087001F07AFFA3480078002836
:1043100003D002F01DFE02F031FE01BD80B59B48C6
:10432000007802280AD003280CD19D4880890A30E1
:104330009B49888101209849087003E0012000F022
:104340001BF8FFE701BD80B59048007802280ED029
:10435000032810D1924880890B2804DB904880897B
:104360000A388F49888101208B49087003E00020BA
:1043700000F002F8FFE701BD9FED7F0AC0B2002800
:1043800001D1B1EE400A8749D1ED000A864991ED8D
:10439000001AC0EE810A80EE201A8349D1ED001A7E
:1043A00031EE211A804981ED001A7F49D1ED001AC2
:1043B0009FED722AC1EE821A7949C1ED011A0121DD
:1043C000754A1170704700B58BB005200190002030
:1043D0000090082300220021744801F082FB6F48FE
:1043E0000078002803D002283FD029D361E00120C3
:1043F0000190002000900C230D2200216C4801F058
:1044000070FB01200190002000900C231B22002152
:10441000684801F066FB01200190002000900C2309
:1044200029220021644801F05CFB02200190002059
:1044300000900C2337220021604801F052FB38E045
:1044400001200190002000900C230D2200215C48E7
:1044500001F047FB01200190002000900C231B225B
:104460000021544801F03DFB23E001200190002091
:104470000090082316220021524801F032FB4948DF
:1044800090ED000A02A802F06BFA012001900020D2
:10449000009016232222002102A801F022FB012015
:1044A0000190002000900C2341220021464801F099
:1044B00018FB0BB000BD00003E00000080B52DEDE4
:1044C000028B8AB005200190002000900823002272
:1044D00000213E4801F005FB0120019000200090E2
:1044E0000C230E2200213A4801F0FBFA02F0A2FD53
:1044F000B0EE408A18EE100A02F074FC02000B00C5
:10450000344902A802F00CFB012001900020009029
:104510000C231E22002102A801F0E3FA01200190E1
:10452000002000900C233C2200212B4801F0D9FAF6
:104530000AB0BDEC028B01BD2000000000B58BB0BD
:1045400001200190002000900C230A220021234822
:1045500001F0C7FA12488289214902A802F0E0FA64
:1045600001200190002000900C231E22002102A8AF
:1045700001F0B7FA0BB000BD0AD7233C09CA2941A4
:104580000CED00E00400FA05F7550020F655002078
:104590004897000818000020F8550020EF5500202B
:1045A00054550020A05500200C000020C46E0008C7
:1045B00058970008089800081498000820980008E8
:1045C0002C9800087896000868970008389800082A
:1045D000789700088C960008A09600088897000835
:1045E0004498000801684FF6FE72114001600021F6
:1045F000016000214160002181600021C160724999
:10460000884206D17149096851F00F016F4A116063
:104610006CE06F49884206D16C49096851F0F0019D
:104620006A4A116062E06B49884206D167490968AD
:1046300051F47061654A116058E06749884206D1BB
:104640006249096851F47041604A11604EE0634963
:10465000884206D15D49096851F470215B4A1160B6
:1046600044E05F49884206D15849096851F4700115
:10467000564A11603AE05B49884206D153490968BD
:1046800051F07061514A116030E05749884206D1BB
:104690005649096851F00F01544A116026E0544907
:1046A000884206D15149096851F0F0014F4A116022
:1046B0001CE05049884206D14C49096851F47061A8
:1046C0004A4A116012E04C49884206D147490968BC
:1046D00051F47041454A116008E04849884205D1CB
:1046E0004249096851F47021404A1160704710B482
:1046F000002203681A006FF30E128B680C6A2343C2
:104700000C6923434C6923438C692343CC692343BD
:104710004C6A23438C6A23431A4302608B894360AB
:104720000B6883604B68C36010BC70470021016058
:10473000002141600021816000218181002101610F
:1047400000214161002181610021C16100210162DC
:1047500000214162002181627047C9B2002904D062
:10476000026852F00102026004E002684FF6FE7334
:104770001A4002607047D2B2002A03D003680B438C
:10478000036002E003688B43036070470100002070
:104790000022CB0003D51A4B1B681A0002E0194B0C
:1047A0001B681A000A4202D00123180001E000230E
:1047B0001800C0B27047C10002D50C49086001E082
:1047C00002490860704700000800024004000240EF
:1047D0001C000240300002404400024058000240E9
:1047E0006C000240800002400804024004040240C1
:1047F0001C040240300402404404024058040240B9
:10480000000402400000024010B50400B4F1A04FC3
:1048100003D0DFF8240384420AD101215FF08050E5
:1048200000F0DBFE00215FF0805000F0D6FE11E0CA
:10483000DFF80803844203D0DFF80403844209D17F
:1048400001215FF0005000F0C8FE00215FF0005031
:1048500000F0C3FE10BD10B40022C3681A00DFF8D8
:10486000E4321A400B684C6823438C682343CC68BD
:1048700023430C6923434C6923438C6923431A4324
:10488000C260036B1A00120912010B7F5B1E1A43F0
:10489000026310BC704700210160002141600021CB
:1048A00081600021C160002101610021416100217E
:1048B000816101210177704710B40022B0F1A04F4F
:1048C00003D0DFF87432984207D1DFF87C321B68DE
:1048D0001A00DFF878321A4006E0DFF874321B68FD
:1048E0001A00DFF868321A400B684C6823438C6862
:1048F0002343CC6853EA04330C7C53EA04231A4361
:10490000B0F1A04F03D0DFF83032984203D1DFF886
:1049100038321A6002E0DFF838321A6010BC704793
:104920000021016000214160002181600021C160FF
:10493000002101747047C9B2002904D0826852F086
:104940000102826003E0826852F0020282607047D6
:10495000816851F0004181607047826832F0804286
:10496000826082680A4382607047010000208A6882
:10497000002A02D50122100001E000221000C0B27E
:104980007047826832F040528260C9B2002904D078
:10499000826852F08052826003E0826852F00052D6
:1049A00082607047F0B400250024D2B2052A12DAE2
:1049B000066B35001F26062712FB07F7BE403400A2
:1049C000A543C9B2062612FB06F611FA06F6340014
:1049D000254305634AE0D2B20A2A15DA466B350050
:1049E0001F26571F5FF0060C17FB0CF7BE40340064
:1049F000A543C9B2561F062716FB07F611FA06F69D
:104A000034002543456331E0D2B20F2A17DA866BB2
:104A100035001F26B2F10A075FF0060C17FB0CF7F2
:104A2000BE403400A543C9B2B2F10A06062716FB00
:104A300007F611FA06F634002543856316E0C66BC7
:104A400035001F26B2F10F075FF0060C17FB0CF7BD
:104A5000BE403400A543C9B2B2F10F06062716FBCB
:104A600007F611FA06F634002543C563C9B20A29D0
:104A70001ADB866935000726B1F10A075FF0030CDF
:104A800017FB0CF7BE4034008669A6438661866931
:104A9000DBB2B1F10A075FF0030C17FB0CF713FA56
:104AA00007F73E43866115E04669350038264F1EFC
:104AB0005FF0030C17FB0CF7BE4034004669A643B9
:104AC00046614669DBB2032711FB07F713FA07F7C4
:104AD0003E434661F0BC7047816851F0040181603B
:104AE0007047816851F0100181607047006C80B29E
:104AF0007047C9B2002904D0C26852F00102C260F6
:104B000003E0C26852085200C2607047C26832F0C7
:104B10000202C260C2680A43C260704702000020FD
:104B200013680B4202D00123180001E00023180093
:104B3000C0B270470160704700010050000400508F
:104B40000005005007C0FFFD08030050E010FCFF07
:104B50000807005010B50400DFF8B80284420AD1FB
:104B600001214FF4006000F047FD00214FF4006088
:104B700000F042FD89E0B4F1804F08D1012101200D
:104B800000F049FD0021012000F045FD7DE0DFF847
:104B90006803844208D10121022000F03CFD00217D
:104BA000022000F038FD70E0DFF85003844208D1A5
:104BB0000121042000F02FFD0021042000F02BFD36
:104BC00063E0DFF83C03844208D10121102000F0AB
:104BD00022FD0021102000F01EFD56E0DFF8240326
:104BE000844208D10121202000F015FD0021202061
:104BF00000F011FD49E0DFF8100384420AD10121E1
:104C00004FF4005000F0F8FC00214FF4005000F089
:104C1000F3FC3AE0DFF8F40284420AD101215FF4A8
:104C2000803000F0E9FC00215FF4803000F0E4FC0B
:104C30002BE0DFF8DC0284420AD101215FF400306E
:104C400000F0DAFC00215FF4003000F0D5FC1CE03D
:104C5000DFF8C00284420AD101215FF4802000F015
:104C6000CBFC00215FF4802000F0C6FC0DE0DFF8F3
:104C7000A802844209D101215FF4801000F0BCFC3D
:104C800000215FF4801000F0B7FC10BD0022038803
:104C90001A00DFF88031984212D0DFF86C32984267
:104CA0000ED0B0F1804F0BD0DFF84C32984207D0D5
:104CB000DFF84832984203D0DFF85C32984204D1E2
:104CC0004FF68F731A404B881A43DFF834329842FC
:104CD00008D0DFF83032984204D04FF6FF431A4034
:104CE0000B891A4302804B68C3620B880385DFF887
:104CF0002431984213D0DFF8103298420FD0DFF8F9
:104D00000C3298420BD0DFF80832984207D0DFF817
:104D10000432984203D0DFF80032984201D14B8927
:104D200003860123436170475FF0FF31416000213A
:104D300001800021018100214180002141817047D3
:104D400041627047C1627047C9B2002904D002882D
:104D500052F08002028004E002884FF67F731A400E
:104D60000280704702884FF6F7731A40028002886B
:104D70000A4302807047C9B2002904D0028852F069
:104D80000102028004E002884FF6FE731A4002809E
:104D9000704730B4002300240022056A35F48055A2
:104DA0000562056A2C0045682A00C5692B0033F4AA
:104DB000E04333F440730D6853EA052334F40054A0
:104DC0008D8954EA05348D8854EA0534114DA84282
:104DD00003D0DFF83451A84204D132F480420D8A66
:104DE00052EA85124260C3618D680564046230BC7A
:104DF000704700210160002181800021C1800021D5
:104E00008160002181810021C18100210182002176
:104E100041827047002C01400022C3691A0032F41D
:104E2000006289B252EA0122C2617047C9B2002908
:104E300004D0426C52F40042426403E0426C5204DB
:104E4000520C4264704710B4D2B2002A04D0C36836
:104E500089B20B43C36004E0C368CC43A4B22340CF
:104E6000C36010BC7047CA4392B20261704730B44D
:104E7000020000200023002415690D402B00D56896
:104E80000D402C009BB2002B05D0A4B2002C02D008
:104E90000125280001E000252800C0B230BC704781
:104EA000CA4392B202617047F8B504000D001600C3
:104EB0001F003B009BB2320092B2290089B2200051
:104EC00000F02CF8A06850F48040A060F1BD0022F2
:104ED00083681A004FF68F731A400A4392B28260B9
:104EE000704742684FF68F731A404260426889B239
:104EF0000A43426070470000000400400008004080
:104F00000010004000140040003401400040014007
:104F100000440140004801400050014030B40024EA
:104F200085682C00E4B252EA03250D432C43A4B259
:104F3000846030BC70470000DFF85807006850F00C
:104F40000100DFF850170860DFF84C070068DFF851
:104F50004C170840DFF840170860DFF83807006892
:104F6000DFF83C170840DFF82C170860DFF824074B
:104F7000006830F48020DFF81C170860DFF818079D
:104F8000006830F4FE00DFF810170860DFF814073F
:104F90000068800B8003DFF80C170860DFF8080753
:104FA0000068DFF808170840DFF8FC1608600020EA
:104FB000DFF8FC1608607047DFF8DC26126832F470
:104FC0007412DFF8D4361A60DFF8CC26126851EA82
:104FD00000031A43DFF8C0361A607047C0B2DFF82A
:104FE000D816086070470021DFF8AC26126811005F
:104FF000890889000143DFF8A02611607047DFF8B7
:105000009806006810F00C0070472DE9F04100216F
:105010000022002300240025002600275FF0000C5A
:10502000DFF874E6DEF800E01EF00C0E71468E46E6
:10503000BEF1000F06D0BEF1040F08D0BEF1080F7C
:105040000AD033E0DFF874E6C0F800E032E0DFF8C1
:105050006CE6C0F800E02DE0DFF83CE6DEF800E0AA
:105060001EF4701E7246DFF830E6DEF800E01EF433
:10507000803E7346920C921C002B05D1DFF840E66F
:105080000EFB02FE76460FE0DFF818E6DEF800E0E1
:105090001EF00F0E1EF1010E7446DFF820E6BEFB77
:1050A000F4FE02FB0EFE7646066003E0DFF80CE637
:1050B000C0F800E0DFF8E0E5DEF800E01EF0F00EFA
:1050C00071460909DFF8FCE511F80EE0F446D0F866
:1050D00000E03EFA0CFEC0F804E0DFF8BCE5DEF8C4
:1050E00000E01EF4E06E7146090ADFF8D8E511F819
:1050F0000EE07546D0F804E03EFA05FEC0F808E080
:10510000DFF894E5DEF800E01EF4605E7146C90A3F
:10511000DFF8B0E511F80EE07746D0F804E03EFA8B
:1051200007FEC0F80CE0DFF87CE5DEF800E01EF4D6
:10513000F87E71460909DFF890E511F00F083EF896
:1051400018E075465FEAC16E06D5002D04D0B6FBA7
:10515000F5FEC0F810E003E0D0F800E0C0F810E081
:10516000DFF840E5DEF800E01EF4785E7146490A9B
:10517000DFF854E511F00F083EF818E075465FEAD5
:10518000C16E06D5002D04D0B6FBF5FEC0F814E0C4
:1051900003E0D0F800E0C0F814E0DFF80CE5DEF83A
:1051A00000E05FEACE6E04D4DFF810E5C0F818E046
:1051B00003E0D0F800E0C0F818E0DFF8ECE4DEF837
:1051C00000E05FEA8E6E04D4DFF8F0E4C0F81CE083
:1051D00003E0D0F800E0C0F81CE0DFF8CCE4DEF833
:1051E00000E05FEA4E6E04D4DFF8D0E4C0F820E0BF
:1051F00003E0D0F800E0C0F820E0DFF8ACE4DEF82F
:1052000000E05FEACE5E0AD5D0F800E0B64506D1F0
:10521000674504D15FEA460EC0F824E003E0D0F809
:105220000CE0C0F824E0DFF880E4DEF800E05FEA9C
:10523000CE4E0AD5D0F800E0B64506D1674504D178
:105240005FEA460EC0F828E003E0D0F80CE0C0F8B2
:1052500028E0DFF854E4DEF800E05FEA8E5E0AD56D
:10526000D0F800E0B64506D1674504D15FEA460EA6
:10527000C0F82CE003E0D0F80CE0C0F82CE0DFF838
:1052800028E4DEF800E05FEA4E5E0AD5D0F800E0E0
:10529000B64506D1674504D15FEA460EC0F84CE03A
:1052A00003E0D0F80CE0C0F84CE0DFF8FCE3DEF8F7
:1052B00000E05FEA0E5E0AD5D0F800E0B64506D100
:1052C000674504D15FEA460EC0F850E003E0D0F82D
:1052D0000CE0C0F850E0DFF8D0E3DEF800E05FEA71
:1052E0008E4E0AD5D0F800E0B64506D1674504D108
:1052F0005FEA460EC0F854E003E0D0F80CE0C0F8D6
:1053000050E0DFF8A4E3DEF800E05FEA0E4E0AD5D5
:10531000D0F800E0B64506D1674504D15FEA460EF5
:10532000C0F858E003E0D0F80CE0C0F858E0DFF82F
:1053300078E3DEF800E01EF0030F04D1D0F80CE0B3
:10534000C0F838E028E0DFF860E3DEF800E01EF0A7
:10535000030EBEF1010F04D1D0F800E0C0F838E030
:105360001AE0DFF844E3DEF800E01EF0030EBEF1C1
:10537000020F04D14FF4004EC0F838E00CE0DFF823
:1053800028E3DEF800E01EF0030EBEF1030F03D1A8
:10539000DFF828E3C0F838E0DFF80CE3DEF800E0DF
:1053A0001EF4403F04D1D0F808E0C0F83CE028E00B
:1053B000DFF8F4E2DEF800E01EF4403EBEF5803F88
:1053C00004D1D0F800E0C0F83CE01AE0DFF8D8E201
:1053D000DEF800E01EF4403EBEF5003F04D14FF47D
:1053E000004EC0F83CE00CE0DFF8BCE2DEF800E084
:1053F0001EF4403EBEF5403F03D1DFF8C0E2C0F8E6
:105400003CE0DFF8A4E2DEF800E01EF4402F04D117
:10541000D0F808E0C0F840E028E0DFF88CE2DEF8E1
:1054200000E01EF4402EBEF5802F04D1D0F800E03D
:10543000C0F840E01AE0DFF870E2DEF800E01EF4A9
:10544000402EBEF5002F04D14FF4004EC0F840E0CE
:105450000CE0DFF854E2DEF800E01EF4402EBEF56A
:10546000402F03D1DFF854E2C0F840E0DFF838E223
:10547000DEF800E01EF4401F04D1D0F808E0C0F8C8
:1054800044E028E0DFF820E2DEF800E01EF4401EF1
:10549000BEF5801F04D1D0F800E0C0F844E01AE067
:1054A000DFF804E2DEF800E01EF4401EBEF5001F47
:1054B00004D14FF4004EC0F844E00CE0DFF8E8E11E
:1054C000DEF800E01EF4401EBEF5401F03D1DFF8F9
:1054D000ECE1C0F844E0DFF8D0E1DEF800E01EF4D3
:1054E000400F04D1D0F808E0C0F848E028E0DFF829
:1054F000B8E1DEF800E01EF4400EBEF5800F04D1E6
:10550000D0F800E0C0F848E01AE0DFF89CE1DEF8EF
:1055100000E01EF4400EBEF5000F04D14FF4004E23
:10552000C0F848E00CE0DFF880E1DEF800E01EF4AF
:10553000400EBEF5400F03D1DFF880E1C0F848E02F
:10554000BDE8F0810021020F1100002908D0DFF82A
:105550005421126832F47852DFF848311A6007E0BB
:10556000DFF84021126832F4F872DFF838311A603F
:10557000DFF8302112680243DFF828311A607047E3
:10558000C9B2002905D0514A126802434F4B1A6034
:1055900004E04E4A126882434C4B1A607047C9B20D
:1055A000002905D04A4A12680243494B1A6004E0B8
:1055B000474A12688243464B1A607047C9B20029B5
:1055C00005D0444A12680243424B1A6004E0414A43
:1055D000126882433F4B1A607047C9B2002905D058
:1055E0003D4A126802433C4B1A6004E03A4A126892
:1055F0008243394B1A607047C9B2002905D0374A37
:1056000012680243354B1A6004E0344A1268824340
:10561000324B1A607047C9B2002905D0304A12686F
:1056200002432F4B1A6004E02D4A126882432C4B30
:105630001A60704710B402000023002400201100FB
:10564000C9B24909C9B20B00002B03D1114909683D
:105650000C000EE0012B03D1164909680C0008E08C
:10566000042B03D10C4909680C0002E01D490968AC
:105670000C00D2B212F01F010B002100D940C90763
:1056800002D50121080001E000210800C0B210BCD1
:1056900070470000001002400410024000C0FFF8F4
:1056A000FFFFF6FE2C10024030100240CCEC000F41
:1056B00008100240201002406000424200127A00AE
:1056C00000093D00880000209800002014100240CE
:1056D000181002401C100240281002400C1002401A
:1056E0001010024024100240F0B4002200230024D5
:1056F000002500263200102A54D20126964033009D
:105700000E681E4034009C424AD10E79012E02D010
:105710000E79022E1FD18668032794465FFA8CFC0F
:105720005FEA4C0C17FA0CF7BE43866086684F7927
:1057300094465FFA8CFC5FEA4C0C17FA0CF73E4378
:105740008660868801279740BE43868086888F7949
:1057500097403E4386800668032794465FFA8CFC98
:105760005FEA4C0C17FA0CF7BE43066006680F7927
:1057700094465FFA8CFC5FEA4C0C17FA0CF73E4338
:105780000660C668350003261700FFB27F00BE40E2
:10579000B543CE791700FFB27F00BE403543C560E8
:1057A000521CA8E7F0BC70474FF6FF710160002162
:1057B000017102214171002181710021C171704785
:1057C00089B28161704701857047F0B400230024DD
:1057D000D2B211F00705EDB2AD0012FA05F52B00BB
:1057E00089B2CD1010EB850589B2CE1010EB86067C
:1057F000366A0F2711F0070C5FFA8CFC5FEA8C0CFD
:1058000017FA0CF7BE432E6289B2CD1010EB850556
:105810002D6A1D432C0089B2CD1010EB85052C623A
:10582000F0BC704710B440B2002808D50A015B4BA9
:1058300040B210F00F04E31803F8042C03E00A014F
:10584000574B40B2C25410BC704710B50400601EE4
:10585000B0F1807F01D301200EE0601E5149086045
:105860000F215FF0FF30FFF7DDFF00204E49086099
:1058700007204E490860002010BD00B597B04FF4D6
:10588000E06000F0A1F800F010F86846FFF7BDFBFB
:1058900001984FF47A71B0FBF1F0FFF7D6FF00F0FA
:1058A00025F800F033F817B000BD80B50020FFF7F1
:1058B0009AFBFFF7A4FB0028FBD1FFF73DFB5FF449
:1058C000C0110020FFF778FB0120FFF787FB1920AC
:1058D000FFF7B0FE0028FAD00220FFF784FBFFF7A5
:1058E0008EFB0828FBD101F0D6FC01BD30480068D2
:1058F00050F080702E49086000202E4908602E4824
:10590000006850F001002C490860704700B585B070
:1059100001210120FFF743FE6846FFF745FF032002
:105920008DF804008020009000208DF80700694663
:105930005FF09040FFF7D8FE0120009069461F48B5
:10594000FFF7D2FE042001F071FD0C2003904020EF
:10595000029002A9042001F06DFD00224FF40041E5
:10596000042001F076FD0121042001F082FD05B044
:1059700000BD10480068704738B50400FFF7F9FF14
:105980000F4909680F4AB1FBF2F101FB0405280039
:1059900001F082FD0028FAD131BD000018ED00E0D1
:1059A00000E400E014E000E018E000E010E000E0B7
:1059B000FCED00E0041000E0001000E000040048EE
:1059C000B800002040420F001C4901431C4A1160EE
:1059D000704770B4002300210F22C478002C20D01F
:1059E000174C246814F4E064D4F5E064240A23001E
:1059F000D3F104042100DA4044788C4023008478F9
:105A0000144023431B010F4C05782B5501240578C6
:105A100015F01F05AC400C4D0678761145F8264070
:105A200009E00124057815F01F05AC40074D067804
:105A3000761145F8264070BC704700000000FA055A
:105A40000CED00E000E400E000E100E080E100E0B7
:105A500030B403009BB2A02B07DA89B2A0249BB21A
:105A600004FB0134DFF89455625530BC704770B5C3
:105A70004FF448540025DFF884652A0021003000E7
:105A800001F01AF80020DFF8781508800020DFF810
:105A90007415088070BD70B54FF448540025DFF8C8
:105AA0005C652A002100300001F006F801F005FFD6
:105AB0000020DFF84C1508800020DFF8481508802A
:105AC00070BD10B5DFF840050468DFF8300501F05F
:105AD00030FFDFF834050068001BDFF83015086080
